{
  "_format": "hh-sol-artifact-1",
  "contractName": "NFT",
  "sourceName": "contracts/NFT.sol",
  "abi": [
    {
      "inputs": [],
      "stateMutability": "nonpayable",
      "type": "constructor"
    },
    {
      "anonymous": false,
      "inputs": [
        {
          "indexed": true,
          "internalType": "address",
          "name": "owner",
          "type": "address"
        },
        {
          "indexed": true,
          "internalType": "address",
          "name": "approved",
          "type": "address"
        },
        {
          "indexed": true,
          "internalType": "uint256",
          "name": "tokenId",
          "type": "uint256"
        }
      ],
      "name": "Approval",
      "type": "event"
    },
    {
      "anonymous": false,
      "inputs": [
        {
          "indexed": true,
          "internalType": "address",
          "name": "owner",
          "type": "address"
        },
        {
          "indexed": true,
          "internalType": "address",
          "name": "operator",
          "type": "address"
        },
        {
          "indexed": false,
          "internalType": "bool",
          "name": "approved",
          "type": "bool"
        }
      ],
      "name": "ApprovalForAll",
      "type": "event"
    },
    {
      "anonymous": false,
      "inputs": [
        {
          "indexed": false,
          "internalType": "uint256",
          "name": "_fromTokenId",
          "type": "uint256"
        },
        {
          "indexed": false,
          "internalType": "uint256",
          "name": "_toTokenId",
          "type": "uint256"
        }
      ],
      "name": "BatchMetadataUpdate",
      "type": "event"
    },
    {
      "anonymous": false,
      "inputs": [
        {
          "indexed": false,
          "internalType": "uint256",
          "name": "_tokenId",
          "type": "uint256"
        }
      ],
      "name": "MetadataUpdate",
      "type": "event"
    },
    {
      "anonymous": false,
      "inputs": [
        {
          "indexed": false,
          "internalType": "address",
          "name": "sender",
          "type": "address"
        },
        {
          "indexed": false,
          "internalType": "uint256",
          "name": "tokenId",
          "type": "uint256"
        }
      ],
      "name": "NewNFTMinted",
      "type": "event"
    },
    {
      "anonymous": false,
      "inputs": [
        {
          "indexed": true,
          "internalType": "address",
          "name": "from",
          "type": "address"
        },
        {
          "indexed": true,
          "internalType": "address",
          "name": "to",
          "type": "address"
        },
        {
          "indexed": true,
          "internalType": "uint256",
          "name": "tokenId",
          "type": "uint256"
        }
      ],
      "name": "Transfer",
      "type": "event"
    },
    {
      "inputs": [
        {
          "internalType": "address",
          "name": "to",
          "type": "address"
        },
        {
          "internalType": "uint256",
          "name": "tokenId",
          "type": "uint256"
        }
      ],
      "name": "approve",
      "outputs": [],
      "stateMutability": "nonpayable",
      "type": "function"
    },
    {
      "inputs": [
        {
          "internalType": "address",
          "name": "owner",
          "type": "address"
        }
      ],
      "name": "balanceOf",
      "outputs": [
        {
          "internalType": "uint256",
          "name": "",
          "type": "uint256"
        }
      ],
      "stateMutability": "view",
      "type": "function"
    },
    {
      "inputs": [
        {
          "internalType": "uint256",
          "name": "tokenId",
          "type": "uint256"
        }
      ],
      "name": "getApproved",
      "outputs": [
        {
          "internalType": "address",
          "name": "",
          "type": "address"
        }
      ],
      "stateMutability": "view",
      "type": "function"
    },
    {
      "inputs": [
        {
          "internalType": "address",
          "name": "owner",
          "type": "address"
        },
        {
          "internalType": "address",
          "name": "operator",
          "type": "address"
        }
      ],
      "name": "isApprovedForAll",
      "outputs": [
        {
          "internalType": "bool",
          "name": "",
          "type": "bool"
        }
      ],
      "stateMutability": "view",
      "type": "function"
    },
    {
      "inputs": [],
      "name": "makeNFTStuff",
      "outputs": [],
      "stateMutability": "nonpayable",
      "type": "function"
    },
    {
      "inputs": [],
      "name": "name",
      "outputs": [
        {
          "internalType": "string",
          "name": "",
          "type": "string"
        }
      ],
      "stateMutability": "view",
      "type": "function"
    },
    {
      "inputs": [
        {
          "internalType": "uint256",
          "name": "tokenId",
          "type": "uint256"
        }
      ],
      "name": "ownerOf",
      "outputs": [
        {
          "internalType": "address",
          "name": "",
          "type": "address"
        }
      ],
      "stateMutability": "view",
      "type": "function"
    },
    {
      "inputs": [
        {
          "internalType": "address",
          "name": "from",
          "type": "address"
        },
        {
          "internalType": "address",
          "name": "to",
          "type": "address"
        },
        {
          "internalType": "uint256",
          "name": "tokenId",
          "type": "uint256"
        }
      ],
      "name": "safeTransferFrom",
      "outputs": [],
      "stateMutability": "nonpayable",
      "type": "function"
    },
    {
      "inputs": [
        {
          "internalType": "address",
          "name": "from",
          "type": "address"
        },
        {
          "internalType": "address",
          "name": "to",
          "type": "address"
        },
        {
          "internalType": "uint256",
          "name": "tokenId",
          "type": "uint256"
        },
        {
          "internalType": "bytes",
          "name": "data",
          "type": "bytes"
        }
      ],
      "name": "safeTransferFrom",
      "outputs": [],
      "stateMutability": "nonpayable",
      "type": "function"
    },
    {
      "inputs": [
        {
          "internalType": "address",
          "name": "operator",
          "type": "address"
        },
        {
          "internalType": "bool",
          "name": "approved",
          "type": "bool"
        }
      ],
      "name": "setApprovalForAll",
      "outputs": [],
      "stateMutability": "nonpayable",
      "type": "function"
    },
    {
      "inputs": [
        {
          "internalType": "bytes4",
          "name": "interfaceId",
          "type": "bytes4"
        }
      ],
      "name": "supportsInterface",
      "outputs": [
        {
          "internalType": "bool",
          "name": "",
          "type": "bool"
        }
      ],
      "stateMutability": "view",
      "type": "function"
    },
    {
      "inputs": [],
      "name": "symbol",
      "outputs": [
        {
          "internalType": "string",
          "name": "",
          "type": "string"
        }
      ],
      "stateMutability": "view",
      "type": "function"
    },
    {
      "inputs": [
        {
          "internalType": "uint256",
          "name": "tokenId",
          "type": "uint256"
        }
      ],
      "name": "tokenURI",
      "outputs": [
        {
          "internalType": "string",
          "name": "",
          "type": "string"
        }
      ],
      "stateMutability": "view",
      "type": "function"
    },
    {
      "inputs": [
        {
          "internalType": "address",
          "name": "from",
          "type": "address"
        },
        {
          "internalType": "address",
          "name": "to",
          "type": "address"
        },
        {
          "internalType": "uint256",
          "name": "tokenId",
          "type": "uint256"
        }
      ],
      "name": "transferFrom",
      "outputs": [],
      "stateMutability": "nonpayable",
      "type": "function"
    }
  ],
  "bytecode": "0x608060405260405180610160016040528061012f815260200162003bbc61012f913960089081620000319190620004a5565b503480156200003f57600080fd5b506040518060400160405280600681526020017f4361724e465400000000000000000000000000000000000000000000000000008152506040518060400160405280600681526020017f4361724e465400000000000000000000000000000000000000000000000000008152508160009081620000bd9190620004a5565b508060019081620000cf9190620004a5565b505050620001186040518060400160405280601781526020017f636172206e667420636f6e7472616374207365742075700000000000000000008152506200011e60201b60201c565b6200066e565b620001be816040516024016200013591906200061b565b6040516020818303038152906040527f41304fac000000000000000000000000000000000000000000000000000000007bffffffffffffffffffffffffffffffffffffffffffffffffffffffff19166020820180517bffffffffffffffffffffffffffffffffffffffffffffffffffffffff8381831617835250505050620001c160201b60201c565b50565b620001e781620001e2620001ea60201b62000cc3176200020b60201b60201c565b60201c565b50565b60006a636f6e736f6c652e6c6f679050600080835160208501845afa505050565b6200021f60201b62001f8417819050919050565b620002296200063f565b565b600081519050919050565b7f4e487b7100000000000000000000000000000000000000000000000000000000600052604160045260246000fd5b7f4e487b7100000000000000000000000000000000000000000000000000000000600052602260045260246000fd5b60006002820490506001821680620002ad57607f821691505b602082108103620002c357620002c262000265565b5b50919050565b60008190508160005260206000209050919050565b60006020601f8301049050919050565b600082821b905092915050565b6000600883026200032d7fffffffffffffffffffffffffffffffffffffffffffffffffffffffffffffffff82620002ee565b620003398683620002ee565b95508019841693508086168417925050509392505050565b6000819050919050565b6000819050919050565b600062000386620003806200037a8462000351565b6200035b565b62000351565b9050919050565b6000819050919050565b620003a28362000365565b620003ba620003b1826200038d565b848454620002fb565b825550505050565b600090565b620003d1620003c2565b620003de81848462000397565b505050565b5b818110156200040657620003fa600082620003c7565b600181019050620003e4565b5050565b601f82111562000455576200041f81620002c9565b6200042a84620002de565b810160208510156200043a578190505b620004526200044985620002de565b830182620003e3565b50505b505050565b600082821c905092915050565b60006200047a600019846008026200045a565b1980831691505092915050565b600062000495838362000467565b9150826002028217905092915050565b620004b0826200022b565b67ffffffffffffffff811115620004cc57620004cb62000236565b5b620004d8825462000294565b620004e58282856200040a565b600060209050601f8311600181146200051d576000841562000508578287015190505b62000514858262000487565b86555062000584565b601f1984166200052d86620002c9565b60005b82811015620005575784890151825560018201915060208501945060208101905062000530565b8683101562000577578489015162000573601f89168262000467565b8355505b6001600288020188555050505b505050505050565b600082825260208201905092915050565b60005b83811015620005bd578082015181840152602081019050620005a0565b60008484015250505050565b6000601f19601f8301169050919050565b6000620005e7826200022b565b620005f381856200058c565b9350620006058185602086016200059d565b6200061081620005c9565b840191505092915050565b60006020820190508181036000830152620006378184620005da565b905092915050565b7f4e487b7100000000000000000000000000000000000000000000000000000000600052605160045260246000fd5b61353e806200067e6000396000f3fe608060405234801561001057600080fd5b50600436106100ea5760003560e01c80636352211e1161008c578063a22cb46511610066578063a22cb46514610249578063b88d4fde14610265578063c87b56dd14610281578063e985e9c5146102b1576100ea565b80636352211e146101cb57806370a08231146101fb57806395d89b411461022b576100ea565b8063081812fc116100c8578063081812fc14610147578063095ea7b31461017757806323b872dd1461019357806342842e0e146101af576100ea565b806301ffc9a7146100ef57806305c9ca1e1461011f57806306fdde0314610129575b600080fd5b61010960048036038101906101049190611ffa565b6102e1565b6040516101169190612042565b60405180910390f35b610127610342565b005b610131610667565b60405161013e91906120ed565b60405180910390f35b610161600480360381019061015c9190612145565b6106f9565b60405161016e91906121b3565b60405180910390f35b610191600480360381019061018c91906121fa565b61073f565b005b6101ad60048036038101906101a8919061223a565b610856565b005b6101c960048036038101906101c4919061223a565b6108b6565b005b6101e560048036038101906101e09190612145565b6108d6565b6040516101f291906121b3565b60405180910390f35b6102156004803603810190610210919061228d565b61095c565b60405161022291906122c9565b60405180910390f35b610233610a13565b60405161024091906120ed565b60405180910390f35b610263600480360381019061025e9190612310565b610aa5565b005b61027f600480360381019061027a9190612485565b610abb565b005b61029b60048036038101906102969190612145565b610b1d565b6040516102a891906120ed565b60405180910390f35b6102cb60048036038101906102c69190612508565b610c2f565b6040516102d89190612042565b60405180910390f35b6000634906490660e01b7bffffffffffffffffffffffffffffffffffffffffffffffffffffffff1916827bffffffffffffffffffffffffffffffffffffffffffffffffffffffff1916148061033b575061033a82610ce4565b5b9050919050565b600061034e6007610dc6565b905060006040518060400160405280600d81526020017f4d657263656465732d42656e7a00000000000000000000000000000000000000815250905060006040518060400160405280600781526020017f47363320414d4700000000000000000000000000000000000000000000000000815250905060006040518060400160405280601181526020017f5744435943374446384758323433303833000000000000000000000000000000815250905060006040518060400160405280601381526020017f4175746f6d617469632028372d53706565642900000000000000000000000000815250905060006040518060400160405280601481526020017f352e354c20547572626f63686172676564205638000000000000000000000000815250905060006040518060400160405280600681526020017f3730302068700000000000000000000000000000000000000000000000000000815250905060008686868686866040516020016104c996959493929190612584565b604051602081830303815290604052905060006008826040516020016104f0929190612720565b604051602081830303815290604052905060006105358361051084610dd4565b6040516020016105219291906128a5565b604051602081830303815290604052610dd4565b905060008160405160200161054a9190612936565b60405160208183030381529060405290506105996040518060400160405280601581526020017f0a2d2d2d2d2d2d2d2d2d2d2d2d2d2d2d2d2d2d2d2d0000000000000000000000815250610f37565b6105a281610f37565b6105e06040518060400160405280601581526020017f2d2d2d2d2d2d2d2d2d2d2d2d2d2d2d2d2d2d2d2d0a0000000000000000000000815250610f37565b6105ea338c610fd0565b6105f48b82610fee565b6105fe6007611092565b6106216040518060600160405280602581526020016134a4602591398c336110a8565b7f1c05098ed1ff38e6238d2b1b04b2c7977d4c94ce651bda6473f9dba8dbf01da0338c604051610652929190612958565b60405180910390a15050505050505050505050565b6060600080546106769061260b565b80601f01602080910402602001604051908101604052809291908181526020018280546106a29061260b565b80156106ef5780601f106106c4576101008083540402835291602001916106ef565b820191906000526020600020905b8154815290600101906020018083116106d257829003601f168201915b5050505050905090565b600061070482611147565b6004600083815260200190815260200160002060009054906101000a900473ffffffffffffffffffffffffffffffffffffffff169050919050565b600061074a826108d6565b90508073ffffffffffffffffffffffffffffffffffffffff168373ffffffffffffffffffffffffffffffffffffffff16036107ba576040517f08c379a00000000000000000000000000000000000000000000000000000000081526004016107b1906129f3565b60405180910390fd5b8073ffffffffffffffffffffffffffffffffffffffff166107d9611192565b73ffffffffffffffffffffffffffffffffffffffff161480610808575061080781610802611192565b610c2f565b5b610847576040517f08c379a000000000000000000000000000000000000000000000000000000000815260040161083e90612a85565b60405180910390fd5b610851838361119a565b505050565b610867610861611192565b82611253565b6108a6576040517f08c379a000000000000000000000000000000000000000000000000000000000815260040161089d90612b17565b60405180910390fd5b6108b18383836112e8565b505050565b6108d183838360405180602001604052806000815250610abb565b505050565b6000806108e2836115e1565b9050600073ffffffffffffffffffffffffffffffffffffffff168173ffffffffffffffffffffffffffffffffffffffff1603610953576040517f08c379a000000000000000000000000000000000000000000000000000000000815260040161094a90612b83565b60405180910390fd5b80915050919050565b60008073ffffffffffffffffffffffffffffffffffffffff168273ffffffffffffffffffffffffffffffffffffffff16036109cc576040517f08c379a00000000000000000000000000000000000000000000000000000000081526004016109c390612c15565b60405180910390fd5b600360008373ffffffffffffffffffffffffffffffffffffffff1673ffffffffffffffffffffffffffffffffffffffff168152602001908152602001600020549050919050565b606060018054610a229061260b565b80601f0160208091040260200160405190810160405280929190818152602001828054610a4e9061260b565b8015610a9b5780601f10610a7057610100808354040283529160200191610a9b565b820191906000526020600020905b815481529060010190602001808311610a7e57829003601f168201915b5050505050905090565b610ab7610ab0611192565b838361161e565b5050565b610acc610ac6611192565b83611253565b610b0b576040517f08c379a0000000000000000000000000000000000000000000000000000000008152600401610b0290612b17565b60405180910390fd5b610b178484848461178a565b50505050565b6060610b2882611147565b6000600660008481526020019081526020016000208054610b489061260b565b80601f0160208091040260200160405190810160405280929190818152602001828054610b749061260b565b8015610bc15780601f10610b9657610100808354040283529160200191610bc1565b820191906000526020600020905b815481529060010190602001808311610ba457829003601f168201915b505050505090506000610bd26117e6565b90506000815103610be7578192505050610c2a565b600082511115610c1c578082604051602001610c04929190612c35565b60405160208183030381529060405292505050610c2a565b610c25846117fd565b925050505b919050565b6000600560008473ffffffffffffffffffffffffffffffffffffffff1673ffffffffffffffffffffffffffffffffffffffff16815260200190815260200160002060008373ffffffffffffffffffffffffffffffffffffffff1673ffffffffffffffffffffffffffffffffffffffff16815260200190815260200160002060009054906101000a900460ff16905092915050565b60006a636f6e736f6c652e6c6f679050600080835160208501845afa505050565b60007f80ac58cd000000000000000000000000000000000000000000000000000000007bffffffffffffffffffffffffffffffffffffffffffffffffffffffff1916827bffffffffffffffffffffffffffffffffffffffffffffffffffffffff19161480610daf57507f5b5e139f000000000000000000000000000000000000000000000000000000007bffffffffffffffffffffffffffffffffffffffffffffffffffffffff1916827bffffffffffffffffffffffffffffffffffffffffffffffffffffffff1916145b80610dbf5750610dbe82611865565b5b9050919050565b600081600001549050919050565b60606000825103610df657604051806020016040528060008152509050610f32565b60006040518060600160405280604081526020016134c96040913990506000600360028551610e259190612c88565b610e2f9190612ceb565b6004610e3b9190612d1c565b67ffffffffffffffff811115610e5457610e5361235a565b5b6040519080825280601f01601f191660200182016040528015610e865781602001600182028036833780820191505090505b509050600182016020820185865187015b80821015610ef2576003820191508151603f8160121c168501518453600184019350603f81600c1c168501518453600184019350603f8160061c168501518453600184019350603f8116850151845360018401935050610e97565b5050600386510660018114610f0e5760028114610f2157610f29565b603d6001830353603d6002830353610f29565b603d60018303535b50505080925050505b919050565b610fcd81604051602401610f4b91906120ed565b6040516020818303038152906040527f41304fac000000000000000000000000000000000000000000000000000000007bffffffffffffffffffffffffffffffffffffffffffffffffffffffff19166020820180517bffffffffffffffffffffffffffffffffffffffffffffffffffffffff83818316178352505050506118cf565b50565b610fea8282604051806020016040528060008152506118e9565b5050565b610ff782611944565b611036576040517f08c379a000000000000000000000000000000000000000000000000000000000815260040161102d90612dd0565b60405180910390fd5b806006600084815260200190815260200160002090816110569190612f87565b507ff8e1a15aba9398e019f0b49df1a4fde98ee17ae345cb5f6b5e2c27f5033e8ce78260405161108691906122c9565b60405180910390a15050565b6001816000016000828254019250508190555050565b6111428383836040516024016110c093929190613059565b6040516020818303038152906040527f1c7ec448000000000000000000000000000000000000000000000000000000007bffffffffffffffffffffffffffffffffffffffffffffffffffffffff19166020820180517bffffffffffffffffffffffffffffffffffffffffffffffffffffffff83818316178352505050506118cf565b505050565b61115081611944565b61118f576040517f08c379a000000000000000000000000000000000000000000000000000000000815260040161118690612b83565b60405180910390fd5b50565b600033905090565b816004600083815260200190815260200160002060006101000a81548173ffffffffffffffffffffffffffffffffffffffff021916908373ffffffffffffffffffffffffffffffffffffffff160217905550808273ffffffffffffffffffffffffffffffffffffffff1661120d836108d6565b73ffffffffffffffffffffffffffffffffffffffff167f8c5be1e5ebec7d5bd14f71427d1e84f3dd0314c0f7b2291e5b200ac8c7c3b92560405160405180910390a45050565b60008061125f836108d6565b90508073ffffffffffffffffffffffffffffffffffffffff168473ffffffffffffffffffffffffffffffffffffffff1614806112a157506112a08185610c2f565b5b806112df57508373ffffffffffffffffffffffffffffffffffffffff166112c7846106f9565b73ffffffffffffffffffffffffffffffffffffffff16145b91505092915050565b8273ffffffffffffffffffffffffffffffffffffffff16611308826108d6565b73ffffffffffffffffffffffffffffffffffffffff161461135e576040517f08c379a000000000000000000000000000000000000000000000000000000000815260040161135590613109565b60405180910390fd5b600073ffffffffffffffffffffffffffffffffffffffff168273ffffffffffffffffffffffffffffffffffffffff16036113cd576040517f08c379a00000000000000000000000000000000000000000000000000000000081526004016113c49061319b565b60405180910390fd5b6113da8383836001611985565b8273ffffffffffffffffffffffffffffffffffffffff166113fa826108d6565b73ffffffffffffffffffffffffffffffffffffffff1614611450576040517f08c379a000000000000000000000000000000000000000000000000000000000815260040161144790613109565b60405180910390fd5b6004600082815260200190815260200160002060006101000a81549073ffffffffffffffffffffffffffffffffffffffff02191690556001600360008573ffffffffffffffffffffffffffffffffffffffff1673ffffffffffffffffffffffffffffffffffffffff168152602001908152602001600020600082825403925050819055506001600360008473ffffffffffffffffffffffffffffffffffffffff1673ffffffffffffffffffffffffffffffffffffffff16815260200190815260200160002060008282540192505081905550816002600083815260200190815260200160002060006101000a81548173ffffffffffffffffffffffffffffffffffffffff021916908373ffffffffffffffffffffffffffffffffffffffff160217905550808273ffffffffffffffffffffffffffffffffffffffff168473ffffffffffffffffffffffffffffffffffffffff167fddf252ad1be2c89b69c2b068fc378daa952ba7f163c4a11628f55a4df523b3ef60405160405180910390a46115dc838383600161198b565b505050565b60006002600083815260200190815260200160002060009054906101000a900473ffffffffffffffffffffffffffffffffffffffff169050919050565b8173ffffffffffffffffffffffffffffffffffffffff168373ffffffffffffffffffffffffffffffffffffffff160361168c576040517f08c379a000000000000000000000000000000000000000000000000000000000815260040161168390613207565b60405180910390fd5b80600560008573ffffffffffffffffffffffffffffffffffffffff1673ffffffffffffffffffffffffffffffffffffffff16815260200190815260200160002060008473ffffffffffffffffffffffffffffffffffffffff1673ffffffffffffffffffffffffffffffffffffffff16815260200190815260200160002060006101000a81548160ff0219169083151502179055508173ffffffffffffffffffffffffffffffffffffffff168373ffffffffffffffffffffffffffffffffffffffff167f17307eab39ab6107e8899845ad3d59bd9653f200f220920489ca2b5937696c318360405161177d9190612042565b60405180910390a3505050565b6117958484846112e8565b6117a184848484611991565b6117e0576040517f08c379a00000000000000000000000000000000000000000000000000000000081526004016117d790613299565b60405180910390fd5b50505050565b606060405180602001604052806000815250905090565b606061180882611147565b60006118126117e6565b90506000815111611832576040518060200160405280600081525061185d565b8061183c84611b18565b60405160200161184d929190612c35565b6040516020818303038152906040525b915050919050565b60007f01ffc9a7000000000000000000000000000000000000000000000000000000007bffffffffffffffffffffffffffffffffffffffffffffffffffffffff1916827bffffffffffffffffffffffffffffffffffffffffffffffffffffffff1916149050919050565b6118e6816118de610cc3611be6565b63ffffffff16565b50565b6118f38383611bf1565b6119006000848484611991565b61193f576040517f08c379a000000000000000000000000000000000000000000000000000000000815260040161193690613299565b60405180910390fd5b505050565b60008073ffffffffffffffffffffffffffffffffffffffff16611966836115e1565b73ffffffffffffffffffffffffffffffffffffffff1614159050919050565b50505050565b50505050565b60006119b28473ffffffffffffffffffffffffffffffffffffffff16611e0e565b15611b0b578373ffffffffffffffffffffffffffffffffffffffff1663150b7a026119db611192565b8786866040518563ffffffff1660e01b81526004016119fd949392919061330e565b6020604051808303816000875af1925050508015611a3957506040513d601f19601f82011682018060405250810190611a36919061336f565b60015b611abb573d8060008114611a69576040519150601f19603f3d011682016040523d82523d6000602084013e611a6e565b606091505b506000815103611ab3576040517f08c379a0000000000000000000000000000000000000000000000000000000008152600401611aaa90613299565b60405180910390fd5b805181602001fd5b63150b7a0260e01b7bffffffffffffffffffffffffffffffffffffffffffffffffffffffff1916817bffffffffffffffffffffffffffffffffffffffffffffffffffffffff191614915050611b10565b600190505b949350505050565b606060006001611b2784611e31565b01905060008167ffffffffffffffff811115611b4657611b4561235a565b5b6040519080825280601f01601f191660200182016040528015611b785781602001600182028036833780820191505090505b509050600082602001820190505b600115611bdb578080600190039150507f3031323334353637383961626364656600000000000000000000000000000000600a86061a8153600a8581611bcf57611bce612cbc565b5b04945060008503611b86575b819350505050919050565b611f84819050919050565b600073ffffffffffffffffffffffffffffffffffffffff168273ffffffffffffffffffffffffffffffffffffffff1603611c60576040517f08c379a0000000000000000000000000000000000000000000000000000000008152600401611c57906133e8565b60405180910390fd5b611c6981611944565b15611ca9576040517f08c379a0000000000000000000000000000000000000000000000000000000008152600401611ca090613454565b60405180910390fd5b611cb7600083836001611985565b611cc081611944565b15611d00576040517f08c379a0000000000000000000000000000000000000000000000000000000008152600401611cf790613454565b60405180910390fd5b6001600360008473ffffffffffffffffffffffffffffffffffffffff1673ffffffffffffffffffffffffffffffffffffffff16815260200190815260200160002060008282540192505081905550816002600083815260200190815260200160002060006101000a81548173ffffffffffffffffffffffffffffffffffffffff021916908373ffffffffffffffffffffffffffffffffffffffff160217905550808273ffffffffffffffffffffffffffffffffffffffff16600073ffffffffffffffffffffffffffffffffffffffff167fddf252ad1be2c89b69c2b068fc378daa952ba7f163c4a11628f55a4df523b3ef60405160405180910390a4611e0a60008383600161198b565b5050565b6000808273ffffffffffffffffffffffffffffffffffffffff163b119050919050565b600080600090507a184f03e93ff9f4daa797ed6e38ed64bf6a1f0100000000000000008310611e8f577a184f03e93ff9f4daa797ed6e38ed64bf6a1f0100000000000000008381611e8557611e84612cbc565b5b0492506040810190505b6d04ee2d6d415b85acef81000000008310611ecc576d04ee2d6d415b85acef81000000008381611ec257611ec1612cbc565b5b0492506020810190505b662386f26fc100008310611efb57662386f26fc100008381611ef157611ef0612cbc565b5b0492506010810190505b6305f5e1008310611f24576305f5e1008381611f1a57611f19612cbc565b5b0492506008810190505b6127108310611f49576127108381611f3f57611f3e612cbc565b5b0492506004810190505b60648310611f6c5760648381611f6257611f61612cbc565b5b0492506002810190505b600a8310611f7b576001810190505b80915050919050565b611f8c613474565b565b6000604051905090565b600080fd5b600080fd5b60007fffffffff0000000000000000000000000000000000000000000000000000000082169050919050565b611fd781611fa2565b8114611fe257600080fd5b50565b600081359050611ff481611fce565b92915050565b6000602082840312156120105761200f611f98565b5b600061201e84828501611fe5565b91505092915050565b60008115159050919050565b61203c81612027565b82525050565b60006020820190506120576000830184612033565b92915050565b600081519050919050565b600082825260208201905092915050565b60005b8381101561209757808201518184015260208101905061207c565b60008484015250505050565b6000601f19601f8301169050919050565b60006120bf8261205d565b6120c98185612068565b93506120d9818560208601612079565b6120e2816120a3565b840191505092915050565b6000602082019050818103600083015261210781846120b4565b905092915050565b6000819050919050565b6121228161210f565b811461212d57600080fd5b50565b60008135905061213f81612119565b92915050565b60006020828403121561215b5761215a611f98565b5b600061216984828501612130565b91505092915050565b600073ffffffffffffffffffffffffffffffffffffffff82169050919050565b600061219d82612172565b9050919050565b6121ad81612192565b82525050565b60006020820190506121c860008301846121a4565b92915050565b6121d781612192565b81146121e257600080fd5b50565b6000813590506121f4816121ce565b92915050565b6000806040838503121561221157612210611f98565b5b600061221f858286016121e5565b925050602061223085828601612130565b9150509250929050565b60008060006060848603121561225357612252611f98565b5b6000612261868287016121e5565b9350506020612272868287016121e5565b925050604061228386828701612130565b9150509250925092565b6000602082840312156122a3576122a2611f98565b5b60006122b1848285016121e5565b91505092915050565b6122c38161210f565b82525050565b60006020820190506122de60008301846122ba565b92915050565b6122ed81612027565b81146122f857600080fd5b50565b60008135905061230a816122e4565b92915050565b6000806040838503121561232757612326611f98565b5b6000612335858286016121e5565b9250506020612346858286016122fb565b9150509250929050565b600080fd5b600080fd5b7f4e487b7100000000000000000000000000000000000000000000000000000000600052604160045260246000fd5b612392826120a3565b810181811067ffffffffffffffff821117156123b1576123b061235a565b5b80604052505050565b60006123c4611f8e565b90506123d08282612389565b919050565b600067ffffffffffffffff8211156123f0576123ef61235a565b5b6123f9826120a3565b9050602081019050919050565b82818337600083830152505050565b6000612428612423846123d5565b6123ba565b90508281526020810184848401111561244457612443612355565b5b61244f848285612406565b509392505050565b600082601f83011261246c5761246b612350565b5b813561247c848260208601612415565b91505092915050565b6000806000806080858703121561249f5761249e611f98565b5b60006124ad878288016121e5565b94505060206124be878288016121e5565b93505060406124cf87828801612130565b925050606085013567ffffffffffffffff8111156124f0576124ef611f9d565b5b6124fc87828801612457565b91505092959194509250565b6000806040838503121561251f5761251e611f98565b5b600061252d858286016121e5565b925050602061253e858286016121e5565b9150509250929050565b600081905092915050565b600061255e8261205d565b6125688185612548565b9350612578818560208601612079565b80840191505092915050565b60006125908289612553565b915061259c8288612553565b91506125a88287612553565b91506125b48286612553565b91506125c08285612553565b91506125cc8284612553565b9150819050979650505050505050565b7f4e487b7100000000000000000000000000000000000000000000000000000000600052602260045260246000fd5b6000600282049050600182168061262357607f821691505b602082108103612636576126356125dc565b5b50919050565b60008190508160005260206000209050919050565b6000815461265e8161260b565b6126688186612548565b945060018216600081146126835760018114612698576126cb565b60ff19831686528115158202860193506126cb565b6126a18561263c565b60005b838110156126c3578154818901526001820191506020810190506126a4565b838801955050505b50505092915050565b7f3c2f746578743e3c2f7376673e00000000000000000000000000000000000000600082015250565b600061270a600d83612548565b9150612715826126d4565b600d82019050919050565b600061272c8285612651565b91506127388284612553565b9150612743826126fd565b91508190509392505050565b7f7b226e616d65223a202200000000000000000000000000000000000000000000600082015250565b6000612785600a83612548565b91506127908261274f565b600a82019050919050565b7f222c20226465736372697074696f6e223a20224120686967686c79206163636c60008201527f61696d656420636f6c6c656374696f6e206f66204e46542073747566662e222c60208201527f2022696d616765223a2022646174613a696d6167652f7376672b786d6c3b626160408201527f736536342c000000000000000000000000000000000000000000000000000000606082015250565b6000612843606583612548565b915061284e8261279b565b606582019050919050565b7f227d000000000000000000000000000000000000000000000000000000000000600082015250565b600061288f600283612548565b915061289a82612859565b600282019050919050565b60006128b082612778565b91506128bc8285612553565b91506128c782612836565b91506128d38284612553565b91506128de82612882565b91508190509392505050565b7f646174613a6170706c69636174696f6e2f6a736f6e3b6261736536342c000000600082015250565b6000612920601d83612548565b915061292b826128ea565b601d82019050919050565b600061294182612913565b915061294d8284612553565b915081905092915050565b600060408201905061296d60008301856121a4565b61297a60208301846122ba565b9392505050565b7f4552433732313a20617070726f76616c20746f2063757272656e74206f776e6560008201527f7200000000000000000000000000000000000000000000000000000000000000602082015250565b60006129dd602183612068565b91506129e882612981565b604082019050919050565b60006020820190508181036000830152612a0c816129d0565b9050919050565b7f4552433732313a20617070726f76652063616c6c6572206973206e6f7420746f60008201527f6b656e206f776e6572206f7220617070726f76656420666f7220616c6c000000602082015250565b6000612a6f603d83612068565b9150612a7a82612a13565b604082019050919050565b60006020820190508181036000830152612a9e81612a62565b9050919050565b7f4552433732313a2063616c6c6572206973206e6f7420746f6b656e206f776e6560008201527f72206f7220617070726f76656400000000000000000000000000000000000000602082015250565b6000612b01602d83612068565b9150612b0c82612aa5565b604082019050919050565b60006020820190508181036000830152612b3081612af4565b9050919050565b7f4552433732313a20696e76616c696420746f6b656e2049440000000000000000600082015250565b6000612b6d601883612068565b9150612b7882612b37565b602082019050919050565b60006020820190508181036000830152612b9c81612b60565b9050919050565b7f4552433732313a2061646472657373207a65726f206973206e6f74206120766160008201527f6c6964206f776e65720000000000000000000000000000000000000000000000602082015250565b6000612bff602983612068565b9150612c0a82612ba3565b604082019050919050565b60006020820190508181036000830152612c2e81612bf2565b9050919050565b6000612c418285612553565b9150612c4d8284612553565b91508190509392505050565b7f4e487b7100000000000000000000000000000000000000000000000000000000600052601160045260246000fd5b6000612c938261210f565b9150612c9e8361210f565b9250828201905080821115612cb657612cb5612c59565b5b92915050565b7f4e487b7100000000000000000000000000000000000000000000000000000000600052601260045260246000fd5b6000612cf68261210f565b9150612d018361210f565b925082612d1157612d10612cbc565b5b828204905092915050565b6000612d278261210f565b9150612d328361210f565b9250828202612d408161210f565b91508282048414831517612d5757612d56612c59565b5b5092915050565b7f45524337323155524953746f726167653a2055524920736574206f66206e6f6e60008201527f6578697374656e7420746f6b656e000000000000000000000000000000000000602082015250565b6000612dba602e83612068565b9150612dc582612d5e565b604082019050919050565b60006020820190508181036000830152612de981612dad565b9050919050565b60006020601f8301049050919050565b600082821b905092915050565b600060088302612e3d7fffffffffffffffffffffffffffffffffffffffffffffffffffffffffffffffff82612e00565b612e478683612e00565b95508019841693508086168417925050509392505050565b6000819050919050565b6000612e84612e7f612e7a8461210f565b612e5f565b61210f565b9050919050565b6000819050919050565b612e9e83612e69565b612eb2612eaa82612e8b565b848454612e0d565b825550505050565b600090565b612ec7612eba565b612ed2818484612e95565b505050565b5b81811015612ef657612eeb600082612ebf565b600181019050612ed8565b5050565b601f821115612f3b57612f0c8161263c565b612f1584612df0565b81016020851015612f24578190505b612f38612f3085612df0565b830182612ed7565b50505b505050565b600082821c905092915050565b6000612f5e60001984600802612f40565b1980831691505092915050565b6000612f778383612f4d565b9150826002028217905092915050565b612f908261205d565b67ffffffffffffffff811115612fa957612fa861235a565b5b612fb3825461260b565b612fbe828285612efa565b600060209050601f831160018114612ff15760008415612fdf578287015190505b612fe98582612f6b565b865550613051565b601f198416612fff8661263c565b60005b8281101561302757848901518255600182019150602085019450602081019050613002565b868310156130445784890151613040601f891682612f4d565b8355505b6001600288020188555050505b505050505050565b6000606082019050818103600083015261307381866120b4565b905061308260208301856122ba565b61308f60408301846121a4565b949350505050565b7f4552433732313a207472616e736665722066726f6d20696e636f72726563742060008201527f6f776e6572000000000000000000000000000000000000000000000000000000602082015250565b60006130f3602583612068565b91506130fe82613097565b604082019050919050565b60006020820190508181036000830152613122816130e6565b9050919050565b7f4552433732313a207472616e7366657220746f20746865207a65726f2061646460008201527f7265737300000000000000000000000000000000000000000000000000000000602082015250565b6000613185602483612068565b915061319082613129565b604082019050919050565b600060208201905081810360008301526131b481613178565b9050919050565b7f4552433732313a20617070726f766520746f2063616c6c657200000000000000600082015250565b60006131f1601983612068565b91506131fc826131bb565b602082019050919050565b60006020820190508181036000830152613220816131e4565b9050919050565b7f4552433732313a207472616e7366657220746f206e6f6e20455243373231526560008201527f63656976657220696d706c656d656e7465720000000000000000000000000000602082015250565b6000613283603283612068565b915061328e82613227565b604082019050919050565b600060208201905081810360008301526132b281613276565b9050919050565b600081519050919050565b600082825260208201905092915050565b60006132e0826132b9565b6132ea81856132c4565b93506132fa818560208601612079565b613303816120a3565b840191505092915050565b600060808201905061332360008301876121a4565b61333060208301866121a4565b61333d60408301856122ba565b818103606083015261334f81846132d5565b905095945050505050565b60008151905061336981611fce565b92915050565b60006020828403121561338557613384611f98565b5b60006133938482850161335a565b91505092915050565b7f4552433732313a206d696e7420746f20746865207a65726f2061646472657373600082015250565b60006133d2602083612068565b91506133dd8261339c565b602082019050919050565b60006020820190508181036000830152613401816133c5565b9050919050565b7f4552433732313a20746f6b656e20616c7265616479206d696e74656400000000600082015250565b600061343e601c83612068565b915061344982613408565b602082019050919050565b6000602082019050818103600083015261346d81613431565b9050919050565b7f4e487b7100000000000000000000000000000000000000000000000000000000600052605160045260246000fdfe416e204e465420772f20494420257320686173206265656e206d696e74656420746f2025734142434445464748494a4b4c4d4e4f505152535455565758595a6162636465666768696a6b6c6d6e6f707172737475767778797a303132333435363738392b2fa26469706673582212209d8e1dd88f4533710a87a7ea482dd2985d1a22611de9cfc4dc05754fd5ba797064736f6c634300081400333c73766720786d6c6e733d27687474703a2f2f7777772e77332e6f72672f323030302f73766727207072657365727665417370656374526174696f3d27784d696e594d696e206d656574272076696577426f783d273020302033353020333530273e3c7374796c653e2e62617365207b2066696c6c3a2077686974653b20666f6e742d66616d696c793a2073657269663b20666f6e742d73697a653a20323470783b207d3c2f7374796c653e3c726563742077696474683d273130302527206865696768743d2731303025272066696c6c3d27626c61636b27202f3e3c7465787420783d273530252720793d273530252720636c6173733d27626173652720646f6d696e616e742d626173656c696e653d276d6964646c652720746578742d616e63686f723d276d6964646c65273e",
  "linkReferences": {},
  "deployedLinkReferences": {}
}