{
  "_format": "hh-sol-artifact-1",
  "contractName": "NFTAuction",
  "sourceName": "contracts/Auction.sol",
  "abi": [
    {
      "inputs": [
        {
          "internalType": "address",
          "name": "_nftAddress",
          "type": "address"
        },
        {
          "internalType": "address",
          "name": "_paymentTokenAddress",
          "type": "address"
        },
        {
          "internalType": "uint256",
          "name": "_tokenId",
          "type": "uint256"
        }
      ],
      "stateMutability": "nonpayable",
      "type": "constructor"
    },
    {
      "anonymous": false,
      "inputs": [
        {
          "indexed": true,
          "internalType": "address",
          "name": "winner",
          "type": "address"
        },
        {
          "indexed": false,
          "internalType": "uint256",
          "name": "amount",
          "type": "uint256"
        }
      ],
      "name": "AuctionEnded",
      "type": "event"
    },
    {
      "anonymous": false,
      "inputs": [
        {
          "indexed": true,
          "internalType": "address",
          "name": "seller",
          "type": "address"
        },
        {
          "indexed": false,
          "internalType": "uint256",
          "name": "tokenId",
          "type": "uint256"
        }
      ],
      "name": "AuctionStarted",
      "type": "event"
    },
    {
      "anonymous": false,
      "inputs": [
        {
          "indexed": true,
          "internalType": "address",
          "name": "bidder",
          "type": "address"
        },
        {
          "indexed": false,
          "internalType": "uint256",
          "name": "amount",
          "type": "uint256"
        }
      ],
      "name": "NewBid",
      "type": "event"
    },
    {
      "anonymous": false,
      "inputs": [
        {
          "indexed": true,
          "internalType": "address",
          "name": "previousOwner",
          "type": "address"
        },
        {
          "indexed": true,
          "internalType": "address",
          "name": "newOwner",
          "type": "address"
        }
      ],
      "name": "OwnershipTransferred",
      "type": "event"
    },
    {
      "inputs": [],
      "name": "auctionEnded",
      "outputs": [
        {
          "internalType": "bool",
          "name": "",
          "type": "bool"
        }
      ],
      "stateMutability": "view",
      "type": "function"
    },
    {
      "inputs": [],
      "name": "endAuction",
      "outputs": [],
      "stateMutability": "nonpayable",
      "type": "function"
    },
    {
      "inputs": [],
      "name": "highestBid",
      "outputs": [
        {
          "internalType": "uint256",
          "name": "",
          "type": "uint256"
        }
      ],
      "stateMutability": "view",
      "type": "function"
    },
    {
      "inputs": [],
      "name": "highestBidder",
      "outputs": [
        {
          "internalType": "address",
          "name": "",
          "type": "address"
        }
      ],
      "stateMutability": "view",
      "type": "function"
    },
    {
      "inputs": [],
      "name": "nftContract",
      "outputs": [
        {
          "internalType": "contract ERC721",
          "name": "",
          "type": "address"
        }
      ],
      "stateMutability": "view",
      "type": "function"
    },
    {
      "inputs": [],
      "name": "owner",
      "outputs": [
        {
          "internalType": "address",
          "name": "",
          "type": "address"
        }
      ],
      "stateMutability": "view",
      "type": "function"
    },
    {
      "inputs": [],
      "name": "paymentToken",
      "outputs": [
        {
          "internalType": "contract IERC20",
          "name": "",
          "type": "address"
        }
      ],
      "stateMutability": "view",
      "type": "function"
    },
    {
      "inputs": [
        {
          "internalType": "uint256",
          "name": "amount",
          "type": "uint256"
        }
      ],
      "name": "placeBid",
      "outputs": [],
      "stateMutability": "nonpayable",
      "type": "function"
    },
    {
      "inputs": [],
      "name": "renounceOwnership",
      "outputs": [],
      "stateMutability": "nonpayable",
      "type": "function"
    },
    {
      "inputs": [],
      "name": "seller",
      "outputs": [
        {
          "internalType": "address",
          "name": "",
          "type": "address"
        }
      ],
      "stateMutability": "view",
      "type": "function"
    },
    {
      "inputs": [],
      "name": "startAuction",
      "outputs": [],
      "stateMutability": "nonpayable",
      "type": "function"
    },
    {
      "inputs": [],
      "name": "tokenId",
      "outputs": [
        {
          "internalType": "uint256",
          "name": "",
          "type": "uint256"
        }
      ],
      "stateMutability": "view",
      "type": "function"
    },
    {
      "inputs": [
        {
          "internalType": "address",
          "name": "newOwner",
          "type": "address"
        }
      ],
      "name": "transferOwnership",
      "outputs": [],
      "stateMutability": "nonpayable",
      "type": "function"
    },
    {
      "inputs": [],
      "name": "withdraw",
      "outputs": [],
      "stateMutability": "nonpayable",
      "type": "function"
    }
  ],
  "bytecode": "0x60806040523480156200001157600080fd5b506040516200196d3803806200196d83398181016040528101906200003791906200029b565b620000576200004b6200012a60201b60201c565b6200013260201b60201c565b82600160006101000a81548173ffffffffffffffffffffffffffffffffffffffff021916908373ffffffffffffffffffffffffffffffffffffffff16021790555081600260006101000a81548173ffffffffffffffffffffffffffffffffffffffff021916908373ffffffffffffffffffffffffffffffffffffffff16021790555033600360006101000a81548173ffffffffffffffffffffffffffffffffffffffff021916908373ffffffffffffffffffffffffffffffffffffffff16021790555080600681905550505050620002f7565b600033905090565b60008060009054906101000a900473ffffffffffffffffffffffffffffffffffffffff169050816000806101000a81548173ffffffffffffffffffffffffffffffffffffffff021916908373ffffffffffffffffffffffffffffffffffffffff1602179055508173ffffffffffffffffffffffffffffffffffffffff168173ffffffffffffffffffffffffffffffffffffffff167f8be0079c531659141344cd1fd0a4f28419497f9722a3daafe3b4186f6b6457e060405160405180910390a35050565b600080fd5b600073ffffffffffffffffffffffffffffffffffffffff82169050919050565b60006200022882620001fb565b9050919050565b6200023a816200021b565b81146200024657600080fd5b50565b6000815190506200025a816200022f565b92915050565b6000819050919050565b620002758162000260565b81146200028157600080fd5b50565b60008151905062000295816200026a565b92915050565b600080600060608486031215620002b757620002b6620001f6565b5b6000620002c78682870162000249565b9350506020620002da8682870162000249565b9250506040620002ed8682870162000284565b9150509250925092565b61166680620003076000396000f3fe608060405234801561001057600080fd5b50600436106100ea5760003560e01c80638da5cb5b1161008c578063d56d229d11610066578063d56d229d146101dd578063d57bde79146101fb578063f2fde38b14610219578063fe67a54b14610235576100ea565b80638da5cb5b1461018557806391f90157146101a35780639979ef45146101c1576100ea565b80633ccfd60b116100c85780633ccfd60b146101495780636b64c76914610153578063715018a61461015d5780638643337414610167576100ea565b806308551a53146100ef57806317d70f7c1461010d5780633013ce291461012b575b600080fd5b6100f761023f565b6040516101049190610f86565b60405180910390f35b610115610265565b6040516101229190610fba565b60405180910390f35b61013361026b565b6040516101409190611034565b60405180910390f35b610151610291565b005b61015b6106ae565b005b61016561077a565b005b61016f61078e565b60405161017c919061106a565b60405180910390f35b61018d6107a1565b60405161019a9190610f86565b60405180910390f35b6101ab6107ca565b6040516101b89190610f86565b60405180910390f35b6101db60048036038101906101d691906110b6565b6107f0565b005b6101e5610ac9565b6040516101f29190611104565b60405180910390f35b610203610aef565b6040516102109190610fba565b60405180910390f35b610233600480360381019061022e919061114b565b610af5565b005b61023d610b78565b005b600360009054906101000a900473ffffffffffffffffffffffffffffffffffffffff1681565b60065481565b600260009054906101000a900473ffffffffffffffffffffffffffffffffffffffff1681565b600760009054906101000a900460ff166102e0576040517f08c379a00000000000000000000000000000000000000000000000000000000081526004016102d7906111d5565b60405180910390fd5b600360009054906101000a900473ffffffffffffffffffffffffffffffffffffffff1673ffffffffffffffffffffffffffffffffffffffff163373ffffffffffffffffffffffffffffffffffffffff1614806103895750600460009054906101000a900473ffffffffffffffffffffffffffffffffffffffff1673ffffffffffffffffffffffffffffffffffffffff163373ffffffffffffffffffffffffffffffffffffffff16145b6103c8576040517f08c379a00000000000000000000000000000000000000000000000000000000081526004016103bf90611241565b60405180910390fd5b600460009054906101000a900473ffffffffffffffffffffffffffffffffffffffff1673ffffffffffffffffffffffffffffffffffffffff163373ffffffffffffffffffffffffffffffffffffffff16036104e757600260009054906101000a900473ffffffffffffffffffffffffffffffffffffffff1673ffffffffffffffffffffffffffffffffffffffff1663a9059cbb600460009054906101000a900473ffffffffffffffffffffffffffffffffffffffff166005546040518363ffffffff1660e01b815260040161049e929190611261565b6020604051808303816000875af11580156104bd573d6000803e3d6000fd5b505050506040513d601f19601f820116820180604052508101906104e191906112b6565b506106ac565b600360009054906101000a900473ffffffffffffffffffffffffffffffffffffffff1673ffffffffffffffffffffffffffffffffffffffff163373ffffffffffffffffffffffffffffffffffffffff16036106ab576000600260009054906101000a900473ffffffffffffffffffffffffffffffffffffffff1673ffffffffffffffffffffffffffffffffffffffff166370a08231306040518263ffffffff1660e01b81526004016105999190610f86565b602060405180830381865afa1580156105b6573d6000803e3d6000fd5b505050506040513d601f19601f820116820180604052508101906105da91906112f8565b905060008111156106a957600260009054906101000a900473ffffffffffffffffffffffffffffffffffffffff1673ffffffffffffffffffffffffffffffffffffffff1663a9059cbb600360009054906101000a900473ffffffffffffffffffffffffffffffffffffffff16836040518363ffffffff1660e01b8152600401610664929190611261565b6020604051808303816000875af1158015610683573d6000803e3d6000fd5b505050506040513d601f19601f820116820180604052508101906106a791906112b6565b505b505b5b565b6106b6610dfb565b600760009054906101000a900460ff1615610706576040517f08c379a00000000000000000000000000000000000000000000000000000000081526004016106fd90611371565b60405180910390fd5b600360009054906101000a900473ffffffffffffffffffffffffffffffffffffffff1673ffffffffffffffffffffffffffffffffffffffff167fc087c4cdb16906b5ff7016a6bf927618f24ff32eb1de5e86eeaeb08b94831a686006546040516107709190610fba565b60405180910390a2565b610782610dfb565b61078c6000610e79565b565b600760009054906101000a900460ff1681565b60008060009054906101000a900473ffffffffffffffffffffffffffffffffffffffff16905090565b600460009054906101000a900473ffffffffffffffffffffffffffffffffffffffff1681565b600760009054906101000a900460ff1615610840576040517f08c379a0000000000000000000000000000000000000000000000000000000008152600401610837906113dd565b60405180910390fd5b600360009054906101000a900473ffffffffffffffffffffffffffffffffffffffff1673ffffffffffffffffffffffffffffffffffffffff163373ffffffffffffffffffffffffffffffffffffffff16036108d0576040517f08c379a00000000000000000000000000000000000000000000000000000000081526004016108c790611449565b60405180910390fd5b6005548111610914576040517f08c379a000000000000000000000000000000000000000000000000000000000815260040161090b906114db565b60405180910390fd5b600073ffffffffffffffffffffffffffffffffffffffff16600460009054906101000a900473ffffffffffffffffffffffffffffffffffffffff1673ffffffffffffffffffffffffffffffffffffffff1614610a3057600260009054906101000a900473ffffffffffffffffffffffffffffffffffffffff1673ffffffffffffffffffffffffffffffffffffffff1663a9059cbb600460009054906101000a900473ffffffffffffffffffffffffffffffffffffffff166005546040518363ffffffff1660e01b81526004016109eb929190611261565b6020604051808303816000875af1158015610a0a573d6000803e3d6000fd5b505050506040513d601f19601f82011682018060405250810190610a2e91906112b6565b505b33600460006101000a81548173ffffffffffffffffffffffffffffffffffffffff021916908373ffffffffffffffffffffffffffffffffffffffff160217905550806005819055503373ffffffffffffffffffffffffffffffffffffffff167fdd0b6c6a77960e2066c96171b4d7ac9e8b4c184011f38544afa36a5bb63ec59f82604051610abe9190610fba565b60405180910390a250565b600160009054906101000a900473ffffffffffffffffffffffffffffffffffffffff1681565b60055481565b610afd610dfb565b600073ffffffffffffffffffffffffffffffffffffffff168173ffffffffffffffffffffffffffffffffffffffff1603610b6c576040517f08c379a0000000000000000000000000000000000000000000000000000000008152600401610b639061156d565b60405180910390fd5b610b7581610e79565b50565b610b80610dfb565b600760009054906101000a900460ff1615610bd0576040517f08c379a0000000000000000000000000000000000000000000000000000000008152600401610bc790611371565b60405180910390fd5b6001600760006101000a81548160ff021916908315150217905550600160009054906101000a900473ffffffffffffffffffffffffffffffffffffffff1673ffffffffffffffffffffffffffffffffffffffff166342842e0e600360009054906101000a900473ffffffffffffffffffffffffffffffffffffffff16600460009054906101000a900473ffffffffffffffffffffffffffffffffffffffff166006546040518463ffffffff1660e01b8152600401610c909392919061158d565b600060405180830381600087803b158015610caa57600080fd5b505af1158015610cbe573d6000803e3d6000fd5b50505050600260009054906101000a900473ffffffffffffffffffffffffffffffffffffffff1673ffffffffffffffffffffffffffffffffffffffff1663a9059cbb600360009054906101000a900473ffffffffffffffffffffffffffffffffffffffff166005546040518363ffffffff1660e01b8152600401610d43929190611261565b6020604051808303816000875af1158015610d62573d6000803e3d6000fd5b505050506040513d601f19601f82011682018060405250810190610d8691906112b6565b50600460009054906101000a900473ffffffffffffffffffffffffffffffffffffffff1673ffffffffffffffffffffffffffffffffffffffff167fdaec4582d5d9595688c8c98545fdd1c696d41c6aeaeb636737e84ed2f5c00eda600554604051610df19190610fba565b60405180910390a2565b610e03610f3d565b73ffffffffffffffffffffffffffffffffffffffff16610e216107a1565b73ffffffffffffffffffffffffffffffffffffffff1614610e77576040517f08c379a0000000000000000000000000000000000000000000000000000000008152600401610e6e90611610565b60405180910390fd5b565b60008060009054906101000a900473ffffffffffffffffffffffffffffffffffffffff169050816000806101000a81548173ffffffffffffffffffffffffffffffffffffffff021916908373ffffffffffffffffffffffffffffffffffffffff1602179055508173ffffffffffffffffffffffffffffffffffffffff168173ffffffffffffffffffffffffffffffffffffffff167f8be0079c531659141344cd1fd0a4f28419497f9722a3daafe3b4186f6b6457e060405160405180910390a35050565b600033905090565b600073ffffffffffffffffffffffffffffffffffffffff82169050919050565b6000610f7082610f45565b9050919050565b610f8081610f65565b82525050565b6000602082019050610f9b6000830184610f77565b92915050565b6000819050919050565b610fb481610fa1565b82525050565b6000602082019050610fcf6000830184610fab565b92915050565b6000819050919050565b6000610ffa610ff5610ff084610f45565b610fd5565b610f45565b9050919050565b600061100c82610fdf565b9050919050565b600061101e82611001565b9050919050565b61102e81611013565b82525050565b60006020820190506110496000830184611025565b92915050565b60008115159050919050565b6110648161104f565b82525050565b600060208201905061107f600083018461105b565b92915050565b600080fd5b61109381610fa1565b811461109e57600080fd5b50565b6000813590506110b08161108a565b92915050565b6000602082840312156110cc576110cb611085565b5b60006110da848285016110a1565b91505092915050565b60006110ee82611001565b9050919050565b6110fe816110e3565b82525050565b600060208201905061111960008301846110f5565b92915050565b61112881610f65565b811461113357600080fd5b50565b6000813590506111458161111f565b92915050565b60006020828403121561116157611160611085565b5b600061116f84828501611136565b91505092915050565b600082825260208201905092915050565b7f41756374696f6e20686173206e6f7420656e6465642079657400000000000000600082015250565b60006111bf601983611178565b91506111ca82611189565b602082019050919050565b600060208201905081810360008301526111ee816111b2565b9050919050565b7f596f7520617265206e6f7420656c696769626c6520746f207769746864726177600082015250565b600061122b602083611178565b9150611236826111f5565b602082019050919050565b6000602082019050818103600083015261125a8161121e565b9050919050565b60006040820190506112766000830185610f77565b6112836020830184610fab565b9392505050565b6112938161104f565b811461129e57600080fd5b50565b6000815190506112b08161128a565b92915050565b6000602082840312156112cc576112cb611085565b5b60006112da848285016112a1565b91505092915050565b6000815190506112f28161108a565b92915050565b60006020828403121561130e5761130d611085565b5b600061131c848285016112e3565b91505092915050565b7f41756374696f6e2068617320616c726561647920656e64656400000000000000600082015250565b600061135b601983611178565b915061136682611325565b602082019050919050565b6000602082019050818103600083015261138a8161134e565b9050919050565b7f41756374696f6e2068617320656e646564000000000000000000000000000000600082015250565b60006113c7601183611178565b91506113d282611391565b602082019050919050565b600060208201905081810360008301526113f6816113ba565b9050919050565b7f53656c6c65722063616e6e6f7420626964000000000000000000000000000000600082015250565b6000611433601183611178565b915061143e826113fd565b602082019050919050565b6000602082019050818103600083015261146281611426565b9050919050565b7f426964206d75737420626520686967686572207468616e20746865206375727260008201527f656e742068696768657374206269640000000000000000000000000000000000602082015250565b60006114c5602f83611178565b91506114d082611469565b604082019050919050565b600060208201905081810360008301526114f4816114b8565b9050919050565b7f4f776e61626c653a206e6577206f776e657220697320746865207a65726f206160008201527f6464726573730000000000000000000000000000000000000000000000000000602082015250565b6000611557602683611178565b9150611562826114fb565b604082019050919050565b600060208201905081810360008301526115868161154a565b9050919050565b60006060820190506115a26000830186610f77565b6115af6020830185610f77565b6115bc6040830184610fab565b949350505050565b7f4f776e61626c653a2063616c6c6572206973206e6f7420746865206f776e6572600082015250565b60006115fa602083611178565b9150611605826115c4565b602082019050919050565b60006020820190508181036000830152611629816115ed565b905091905056fea264697066735822122024a6c954204d380c1dab7d7d72bc2eb46b68aea097997110dbe133de4668359364736f6c63430008140033",
  "linkReferences": {},
  "deployedLinkReferences": {}
}